:02000004080AE8
:1000000000000A0890160A08000006000600050114
:080010000402E80500000000F5
:040018002C130A0893
:10001C0009480A4908B5884205D0094A824202D0EB
:10002C00121A01F039F90748074A0021121A01F097
:10003C003EF9064808BD00BF00000020F4150A0870
:10004C007400002078000020700200207002002054
:10005C0070B500F0CDFE074B074C1E46E41AA40801
:10006C000025A54204D056F8253098470135F8E70D
:10007C0070BD00BFBC150A08EC150A0800F080B86A
:10008C0008B500F0A7F8BDE8084000F073BE00F01A
:10009C0087BA00F08DBA0078B0FA80F0400970474A
:1000AC0001230370704710B50446006808B100F0D6
:1000BC007FFA204610BD0000074A1C2343431268F8
:1000CC0021B1D118D3588A881A837047D118D358C4
:1000DC008A885A83704700BF7C00002010B500F05E
:1000EC00D1F80D4B19681C46814202D8421A0023E4
:1000FC0008E00022521A4FF0010363F100031218BA
:10010C0043F100032060054CD4E9000180185941EB
:10011C00C4E9000110BD00BF800000209000002049
:10012C0037B5134D134CFFF7D9FF01212888FFF782
:10013C00C3FF208800F0BCFA0F4B20881A681C23E0
:10014C004343D35801211B6900F0C4FE20880221CF
:10015C0000F0C0FE28880021FFF7AEFF00232088A6
:10016C0000931A46054900F07BFA03B030BD00BF7E
:10017C0000000020040000207C0000202D010A0853
:10018C0013B500F011FD4FF4165100F001FDFFF70F
:10019C00A5FF0C4B0121188800F09CFE0A4B0B4C60
:1001AC001888012100F096FE2088022100F092FEB2
:1001BC000023208800931A46054900F051FA02B03A
:1001CC0010BD00BF0000002008000020040000202B
:1001DC002D010A0810B5FFF781FF00F063F8044603
:1001EC00084B196801311960074B01F0010118889F
:1001FC00FFF762FF204600F05DF8BDE810400A20D2
:10020C0000F0DEB9980000200800002010B500F0C6
:10021C0059F80C4B0C4C18600021012000F04CF9E3
:10022C0000232360A380A37123814FF6FF73032067
:10023C00638100F031F92046BDE81040034A0449BF
:10024C0000F0B2BE7C00002084000020780000206A
:10025C00B3000A0808B5024B1B685B6C019308BD20
:10026C00D001060808B5024B1B689B6C019308BDB6
:10027C00D001060808B5024B1B685B68019308BDEA
:10028C009C01060808B5024B1B681B69019308BD4D
:10029C009C01060808B5024B1B685B69019308BDFD
:1002AC009C01060808B5024B1B689B6B019308BDAB
:1002BC009C01060808B5024B1B68DB6B019308BD5B
:1002CC009C01060808B5024B1B681B68019308BD0E
:1002DC00B001060808B5024B1B689B68019308BD6A
:1002EC00B001060808B5024B1B689B69019308BD59
:1002FC00B001060808B5024B1B68DB69019308BD09
:10030C00B001060808B5024B1B681B6E019308BDB3
:10031C00AC01060808B5024B1B685B6E019308BD67
:10032C00AC01060808B5024B1B689B6E019308BD17
:10033C00AC01060808B5024B1B68DB6E019308BDC7
:10034C00AC01060808B5024B1B681B6F019308BD76
:10035C00AC01060808B5024B1B685B6F019308BD26
:10036C00AC01060808B5034B1B68D3F88030019329
:10037C0008BD0000AC01060808B5024B1B68DB6920
:10038C00019308BDB401060808B5024B1B681B6A33
:10039C00019308BDB401060808B5024B1B689B69A4
:1003AC00019308BDC401060808B5024B1B685B6AC3
:1003BC00019308BDC401060808B5024B1B689B6A73
:1003CC00019308BDC401060808B5024B1B68DB6A23
:1003DC00019308BDC401060808B5024B1B681B6BD2
:1003EC00019308BDC401060808B5024B1B685B6B82
:1003FC00019308BDC401060808B5024B1B689B6B32
:10040C00019308BDC401060808B5024B1B681B6CA0
:10041C00019308BDC401060808B5024B1B681B6894
:10042C00019308BDD801060808B5024B1B685B6830
:10043C00019308BDD801060808B5024B1B681B695F
:10044C00019308BDD801060808B5024B1B685B690F
:10045C00019308BDD801060808B5024B1B689B69BF
:10046C00019308BDD801060808B5024B1B68DB696F
:10047C00019308BDD801060808B5024B1B681B6A1E
:10048C00019308BDD801060808B5024B1B689B6C8C
:10049C00019308BDC001060808B5024B1B685B68D8
:1004AC00019308BDA401060808B5024B1B685B69E3
:1004BC00019308BDA401060808B5024B1B68DB6A52
:1004CC00019308BDA401060808B5034B1B68D3F8BB
:1004DC009030019308BD0000A401060808B5034B39
:1004EC001B68D3F89C30019308BD0000A4010608DA
:1004FC0008B5024B1B68DB6B019308BDCC010608E9
:10050C0008B5024B1B685B68019308BDC80106085F
:10051C0008B5024B1B689B68019308BDC80106080F
:10052C0008B5024B1B68DB68019308BDC8010608BF
:10053C0008B5024B1B681B69019308BDC80106086E
:10054C0008B5024B1B685B69019308BDC80106081E
:10055C0008B5024B1B689B69019308BDC8010608CE
:10056C0008B5024B1B68DB69019308BDC80106087E
:10057C0008B5024B1B681B6A019308BDC80106082D
:10058C0008B5024B1B681B6B019308BDC80106081C
:10059C0008B5024B1B685B6B019308BDC8010608CC
:1005AC0008B5024B1B681B68019308BDA001060827
:1005BC0008B5024B1B685B68019308BDA0010608D7
:1005CC000021FFF771BF10B58368044613B10322F5
:1005DC0001469847204610BD7047F8B506461546AB
:1005EC000C468F18BC4206D0336814F8011B9B686C
:1005FC0030469847F6E72846F8BD0022007CFFF706
:10060C0081BE0021007CFFF785BE0021007CFFF736
:10061C0089BE0021007CFFF78DBE0021007CFFF716
:10062C0091BE10B50446142100F0C3FC204610BD49
:10063C0010B50446002363604FF47A73A360044B37
:10064C002174084623601146FFF78CFE204610BD2E
:10065C0048130A080021007CFFF77CBE004700000D
:10066C00F0B51C4685B00E4617460546FFF742FE10
:10067C00002084424FF0040303908DF80C30B4BF7B
:10068C0003469DF828303246A4BF8DF80E3003ABDC
:10069C00009306493B462846A8BF8DF80D40FFF74E
:1006AC0021FEB0FA80F0400905B0F0BD69060A08D9
:1006BC00F8B50646FFF71EFE074668B9084D55F813
:1006CC0026405CB12046FFF77EFF1021204600F04B
:1006DC0070FC45F8267001E00020F8BD0120F8BD43
:1006EC009C000020704710B50446182100F061FCF6
:1006FC00204610BDF8B50F4600F10806051D002474
:10070C0016F8011D0A22384600F0E7F8AE42044400
:10071C0007D0002CF4D02E21384600F0DBF804442E
:10072C00EEE72046F8BD000010B50446044B11223C
:10073C0040F8043B002100F0BAFD204610BD00BF7C
:10074C0070130A080346074A10B543F8042B01F14D
:10075C00100251F8044B914243F8044BF9D10A783A
:10076C001A7010BD70130A08024A4160026004221C
:10077C000275704770130A0810B59DF8084044EADA
:10078C00032343EA024242EA0161042341600375F8
:10079C0010BD000037B5044D05609DF8185000954C
:1007AC00FFF7EAFF03B030BD70130A08014A024B91
:1007BC001A607047F2130A08FC00002000231A4646
:1007CC004068FFF79DBE002202214068FFF7A8BEDB
:1007DC00002211464068FFF79BBE0022114640687C
:1007EC00FFF7A6BE00231A4619464068FFF7A8BEBD
:1007FC0000231A4619464068FFF7AABE002281F072
:10080C0001014068FFF7ACBE00224068FFF7B8BE9C
:10081C00002211464068FFF7BBBE0022114640681B
:10082C00FFF7A6BE70B516468EB0044608A8FFF7B3
:10083C007BFF1122002103A800F039FD304600F0A7
:10084C0067FD00250A4B009581B25B6803AA304610
:10085C00FFF71AFE20B129462046FFF785FF03E07B
:10086C0003A92046FFF76EFF20460EB070BD00BFF7
:10087C0078010020024B034A1A6000225A6070472C
:10088C000001002068140A08F8B506460D468F18BA
:10089C000024BD420CD0336815F8011B9B68304610
:1008AC009847002801DB0444F3E7002C08BF0446FA
:1008BC002046F8BD70B505460C46084649B100F017
:1008CC0027FD2B68024621462846BDE87040DB68B0
:1008DC00184770BD03689B681847012A98BF0A2205
:1008EC0030B50B468BB000218DF824100DF123048C
:1008FC00B3FBF2F505FB1233DBB2092B94BF30339B
:10090C003733DBB2214604F801392B46002DEFD1E9
:10091C00FFF7D0FF0BB030BD10B50446FFF753FE08
:10092C00204610BD034800238360034A034900F0AE
:10093C003BBB00BF080100207800002025090A08F5
:10094C0070B504460E46002540F8085FFFF782FCA0
:10095C0030462670FFF710FD6560204670BD0078AC
:10096C00FFF712BD4FF6FF7310B5084C0020206046
:10097C00A080A07120816381FFF78EFD2046BDE829
:10098C001040034A034900F00FBB00BF18010020C0
:10099C0078000020B3000A08024B1A68024B1A6058
:1009AC00704700BF0C0000202401002070474174E8
:1009BC00704708B5007CFFF727FD20EAE07008BD02
:1009CC0008B5007CFFF7F8FC20EAE07008BD08B51C
:1009DC00007CFFF701FD30EA200028BF4FF0FF300C
:1009EC0008BD08B5007CFFF7EFFC30EA200028BFFB
:1009FC004FF0FF3008BD007CFFF7F6BC10B5044685
:100A0C00142100F0D6FA204610BD70B5457C044682
:100A1C000E4625B9007CFFF7F7FC002805DD3146B2
:100A2C00207CBDE87040FFF7BFBC284670BD0000BD
:100A3C0010B5044608461146002262604FF47A72E3
:100A4C00A260054A20742260012262741A46FFF7E4
:100A5C00A3FC204610BD00BFC8140A08007CFFF799
:100A6C00CBBC0000F8B5194C25684DB98420FFF7B4
:100A7C000EFB064618B18422294600F018FC2660AD
:100A8C00134D2E684EB98420FFF701FB074618B1B1
:100A9C008422314600F00BFC2F600E4F396811F0A8
:100AAC00010611D13846FFF7F6FA68B122683146D3
:100ABC002B680948FFF7BCFF3846FFF7F1FA074AE5
:100ACC000749054800F070FA0348F8BD44010020BE
:100ADC003C0100204001002028010020780000206B
:100AEC00B9090A0841747047704708B50021007CA9
:100AFC00FFF7B2FC30EA200028BF4FF0FF3008BDF2
:100B0C0008B50121007CFFF7A7FC30EA200028BFC4
:100B1C004FF0FF3008BD08B5007CFFF795FC20EACC
:100B2C00E07008BD08B5007CFFF786FC20EAE07099
:100B3C0008BD007CFFF7A0BC10B50446142100F0E2
:100B4C0038FA204610BD38B50446007C0D46FFF738
:100B5C007BFC002801DC607C28B12946207CFFF757
:100B6C0083FC20EAE07038BD10B5044600236360B6
:100B7C004FF47A73A360054B08462360012321745C
:100B8C0063741146FFF748FC204610BDF8140A08A0
:100B9C000022007CFFF748BC10B50446142200214B
:100BAC0000F085FB204610BD30B50E4D87B001A876
:100BBC00FFF7F2FF296811F0010410D12846FFF766
:100BCC006AFA60B101AA21460748FFF7CDFF284613
:100BDC00FFF766FA054A0649034800F0E5F90248B2
:100BEC0007B030BD480100205001002078000020E3
:100BFC00F50A0A0810B504461422002100F057FB30
:100C0C00204610BD10B50E4C86B001A8FFF7F2FFC0
:100C1C002368DB0710D42046FFF73DFA60B101AA28
:100C2C0001210848FFF7A0FF2046FFF739FA064AD2
:100C3C000649044800F0B8F9024806B010BD00BFE0
:100C4C004C0100206401002078000020F50A0A08FD
:100C5C00002211464068FFF76BBCF0B5164689B010
:100C6C0011220F460446002103A800F020FB304659
:100C7C0000F04EFB0025009581B27B6803AA30463C
:100C8C00FFF702FC20B129462046FFF76DFD03E07B
:100C9C0003A92046FFF756FD204609B0F0BD0022FF
:100CAC0011464068FFF764BC002211464068FFF70C
:100CBC006FBC00224068FFF763BC002281F0010189
:100CCC004068FFF74DBC00231A4619464068FFF7F1
:100CDC003FBC00231A4619464068FFF731BC00227E
:100CEC0011464068FFF714BC002202214068FFF750
:100CFC0017BC00231A464068FFF702BC024B0422C3
:100D0C005A60024A1A6070477801002028150A08B8
:100D1C0008B5144B33B1FFF747FF03681B699847BD
:100D2C00002816DC104B33B1FFF79CFE03681B69DF
:100D3C009847002810DC0D4B0BB1AFF300800C4B27
:100D4C007BB1FFF75FFF03681B699847002806DC3F
:100D5C0008BDAFF30080E5E7AFF30080EBE7AFF33E
:100D6C00008008BD00000000000000000000000032
:100D7C000000000008B5FFF7CBFFFFF78BFA014B23
:100D8C00186008BD980100200248034A0349121A52
:100D9C0000F082BA0040024004400240F0150A08FC
:100DAC0007B5002300931A466FF07701FFF796FB07
:100DBC0003B05DF804FB000007B543880A2B08D08C
:100DCC00502B09D1094B1B683BB103B05DF804EB08
:100DDC001847FFF7E5FF06E0002300931A466FF073
:100DEC007701FFF77BFB03B05DF804FB800100206B
:100DFC0038B5104C104D2368AB42104B0CBF012280
:100E0C0000221A7002D0FFF7BFFF2560FFF732FAFD
:100E1C00044600F055FA0A4B13B12046AFF300809C
:100E2C0000210748FFF764FBBDE838400021054866
:100E3C00FFF74ABB004002401E1C279A8401002089
:100E4C0000000000C50D0A0810B50446806808B102
:100E5C00FFF708FA204610BD70B51A4E04463168EB
:100E6C0011F001050FD13046FFF715F958B129469D
:100E7C001548FFF765FD3046FFF712F9134A144980
:100E8C00114800F091F81048FFF769FD28B1A4F162
:100E9C000D03022B01D8002070BD00F047F8FFF7BE
:100EAC00D9FB08B1012CF6D9FFF7DCFDFFF7D6FD15
:100EBC0018B1A4F11203012BEDD9172C8CBF002013
:100ECC00012070BD880100208C01002078000020DA
:100EDC00550E0A08172838B504460D460AD8FF29BE
:100EEC0008D0FFF7B9FF28B129462046BDE83840A5
:100EFC00FFF7F0B938BD000070B5044614252A463A
:100F0C00094E002100F0D3F9258020253146A5603B
:100F1C002561284600F067F831466060284600F0ED
:100F2C0062F8E060204670BD54150A0830B50E4DCD
:100F3C0087B0296811F0010413D12846FFF7ABF8EC
:100F4C0078B101A8FFF7D8FF01AA21460748FFF79F
:100F5C006FFB2846FFF7A4F8054A0649034800F042
:100F6C0023F8024807B030BD9C010020A0010020EE
:100F7C0078000020E5050A0813B5084C00231A4632
:100F8C00194600932046FFF705FC2046044A054904
:100F9C0002B0BDE8104000F007B800BFB40100205B
:100FAC0078000020F1060A080B460146184600F0AE
:100FBC0065B9FFF76EB80000024B1868BFF35F8F7E
:100FCC00704700BFCC01002010B5002814BF0446A8
:100FDC0001242046FFF7E4FA20B9FFF7EDFF08B132
:100FEC008047F6E710BDFFF7EFBF0000244B1A68EF
:100FFC00D0075CBF01221A60224B1A68D1075CBF74
:10100C0001221A60204B1A68D2075CBF01221A60B9
:10101C001E4B1A68D0075CBF01221A601C4B1A6861
:10102C00D1075CBF01221A601A4B1A68D2075CBF49
:10103C0001221A60184B1A68D0075CBF01221A6093
:10104C00164B1A68D1075CBF01221A60144B1A6840
:10105C00D2075CBF01221A60124B1A68D0075CBF22
:10106C0001221A60104B1A68D1075CBF01221A606A
:10107C000E4B1A68D2075CBF01221A60704700BF82
:10108C00FC010020F8010020F4010020F0010020F8
:10109C00EC010020E8010020E4010020E001002028
:1010AC00DC010020D8010020D4010020D001002058
:1010BC00184B1A68D1075CBF01221A60164B1A68CC
:1010CC00D2075CBF01221A60144B1A68D0075CBFB0
:1010DC0001221A60124B1A68D1075CBF01221A60F8
:1010EC00104B1A68D2075CBF01221A600E4B1A68AB
:1010FC00D0075CBF01221A600C4B1A68D1075CBF89
:10110C0001221A600A4B1A68D2075CBF01221A60CE
:10111C00704700BF1C02002018020020140200209F
:10112C00100200200C020020080200200402002003
:10113C0000020020184B1A68D1075CBF01221A600C
:10114C00164B1A68D2075CBF01221A60144B1A683E
:10115C00D0075CBF01221A60124B1A68D1075CBF22
:10116C0001221A60104B1A68D2075CBF01221A6068
:10117C000E4B1A68D0075CBF01221A600C4B1A6820
:10118C00D1075CBF01221A600A4B1A68D2075CBFF8
:10119C0001221A60704700BF3C0200203802002078
:1011AC0034020020300200202C02002028020020F3
:1011BC002402002020020020244B1A68D0075CBFB8
:1011CC0001221A60224B1A68D1075CBF01221A60F7
:1011DC00204B1A68D2075CBF01221A601E4B1A689A
:1011EC00D0075CBF01221A601C4B1A68D1075CBF88
:1011FC0001221A601A4B1A68D2075CBF01221A60CE
:10120C00184B1A68D0075CBF01221A60164B1A687B
:10121C00D1075CBF01221A60144B1A68D2075CBF5D
:10122C0001221A60124B1A68D0075CBF01221A60A7
:10123C00104B1A68D1075CBF01221A600E4B1A685A
:10124C00D2075CBF01221A60704700BF6C020020FD
:10125C006802002064020020600200205C02002072
:10126C005802002054020020500200204C020020A2
:10127C0048020020440200204002002010B5054C1A
:10128C0013462CB10A4601460220AFF3008010BD74
:10129C00204610BD0000000010B5431E0A449142C8
:1012AC0004D011F8014B03F8014FF8E710BD0346C9
:1012BC000244934202D003F8011BFAE77047000086
:1012CC0038B5124B05461C68A36BD3B91820FFF731
:1012DC0067F943F20E33A06303804AF6CD334380A3
:1012EC0041F2342383804EF26D63C3804DF6EC6380
:1012FC000381052343810B23838101220023C0E951
:10130C000423A36B00221D615A6138BD70000020BC
:10131C00034613F8012B002AFBD1181A0138704729
:10132C001D000A085D000A0889000A088D000A08D9
:10133C00000000000000000000000000E5050A08A5
:10134C002F060A0807060A08E7050A080F060A0806
:10135C0017060A081F060A0827060A0800000000DC
:10136C000000000001070A08F1060A08F3060A0843
:10137C00626175640053657269616C005553425328
:10138C00657269616C3100747970650070617261AD
:10139C006D00636D6400696400686E640073747240
:1013AC006D0066696C74006C766C006164644861F5
:1013BC006E646C65720072656D6F766548616E6403
:1013CC006C657200656E756D48616E646C657273E8
:1013DC00004A534F4E53747265616D4C6F67486190
:1013EC006E646C6572006170700025303130752050
:1013FC00005D20002564002C200028293A200020C4
:10140C005B00636F6465203D200025690064657492
:10141C0061696C73203D20000D0A0066006C6E0043
:10142C00666E00636F64650064657461696C006E60
:10143C006F6E6500747261636500696E666F00772C
:10144C0061726E006572726F720070616E6963001A
:10145C00616C6C000000000000000000C9070A0865
:10146C00D3070A08DD070A08E7070A08F1070A0884
:10147C00FD070A0809080A0815080A081D080A08C1
:10148C0027080A0831080A085A00252B3033643A19
:10149C00253032750025592D256D2D256454254890
:1014AC003A254D3A2553257A0061736374696D654D
:1014BC00000000000000000000000000B9090A084C
:1014CC00090A0A08170A0A0895080A08CD090A0821
:1014DC00EF090A08DB090A08030A0A08BB090A080B
:1014EC00BF090A080000000000000000F50A0A0805
:1014FC00450B0A08530B0A0895080A08310B0A0811
:10150C00F70A0A080D0B0A083F0B0A08230B0A08F6
:10151C00F10A0A080000000000000000FF0C0A0895
:10152C00F50C0A08EB0C0A085D0C0A08DF0C0A081B
:10153C00D30C0A08C70C0A08BF0C0A08B50C0A0819
:10154C00AB0C0A08670C0A08000000000000000041
:10155C00000000000000000000000000000000007F
:10156C00000000000000000000000000000000006F
:10157C00000000000000000000000000000000005F
:10158C00000000000000000000000000000000004F
:10159C00000000000000000000000000000000003F
:1015AC0000000000000000000000000043000000EC
:1015BC0019020A08B9070A0881080A0831090A0839
:1015CC0071090A08A5090A08090D0A08850F0A08F5
:1015DC00F90F0A08BD100A0841110A08C5110A08BA
:0415EC0000000000FB
:0415F00000000000F7
:1015F4000A0000000500000006000000B5140A08F7
:101604000000000058150A0878150A0898150A08F9
:1016140000000000000000000000000000000000C6
:10162400B8150A08000000000000000000000000D7
:1016340000000000000000000000000000000000A6
:101644000000000000000000000000000000000096
:101654000000000000000000000000000000000086
:041664001000002052
:10166800FFFFFFFF00000102030405060708090A3F
:101678000B0C0D0E0F101112131415161718191A3A
:081688001B1C1D1E1F20280081
:041690007856341242
:04000005080A001CC9
:00000001FF
