:02000004080AE8
:1000000000000A08C4100A080000060006000501E6
:080010000402E70500000000F6
:04001800980D0A082D
:10001C0009480A4908B5884205D0094A824202D0EB
:10002C00121A00F06FFE0748074A0021121A00F05E
:10003C0074FE064808BD00BF0000002034100A08FA
:10004C006800002068000020C0050020C0050020CA
:10005C0070B500F045FA074B074C1E46E41AA4088D
:10006C000025A54204D056F8253098470135F8E70D
:10007C0070BD00BFFC0F0A0828100A0800F0BEB9BA
:10008C0008B500F0BCF9BDE8084000F0EBB900F091
:10009C0005B90078B0FA80F040097047012303706D
:1000AC007047000008B5024B1B685B68019308BDE4
:1000BC009C01060808B5024B1B685B69019308BDDF
:1000CC009C01060808B5024B1B689B69019308BD8F
:1000DC00C401060808B5024B1B685B6A019308BD96
:1000EC00C401060808B5024B1B689B6A019308BD46
:1000FC00C401060808B5024B1B68DB6A019308BDF6
:10010C00C401060808B5024B1B681B6B019308BDA4
:10011C00C401060808B5024B1B685B6B019308BD54
:10012C00C401060808B5024B1B681B6C019308BD83
:10013C00C401060808B5024B1B681B68019308BD77
:10014C00D801060808B5024B1B681B69019308BD52
:10015C00D801060808B5024B1B685B69019308BD02
:10016C00D801060808B5024B1B689B69019308BDB2
:10017C00D801060808B5024B1B68DB69019308BD62
:10018C00D801060808B5024B1B681B6A019308BD11
:10019C00D801060808B5024B1B689B6C019308BD7F
:1001AC00C001060808B5024B1B685B68019308BDCB
:1001BC00A401060808B5034B1B68D3F890300193D3
:1001CC0008BD0000A401060808B5034B1B68D3F852
:1001DC009C30019308BD0000A401060808B5024B31
:1001EC001B685B68019308BDC801060808B5024B83
:1001FC001B689B68019308BDC801060808B5024B33
:10020C001B68DB68019308BDC801060808B5024BE2
:10021C001B681B69019308BDC801060808B5024B91
:10022C001B685B69019308BDC801060808B5024B41
:10023C001B689B69019308BDC801060808B5024BF1
:10024C001B68DB69019308BDC801060808B5024BA1
:10025C001B681B6A019308BDC801060808B5024B50
:10026C001B681B6B019308BDC801060808B5024B3F
:10027C001B685B6B019308BDC801060808B5024BEF
:10028C001B68DB6B019308BDCC01060808B5024B5B
:10029C001B681B68019308BDA001060808B5024B3A
:1002AC001B685B68019308BDA001060810B50446E5
:1002BC00006818B1FFF7F2FF0023236010BD10B5E2
:1002CC000446FFF7F3FF204610BD00004FF6FF7306
:1002DC0010B5084C00202060A080A07120816381A3
:1002EC00FFF760FF2046BDE81040034A034900F0C9
:1002FC00ABBB00BF6C00002068000020CB020A08DA
:10030C00F8B506460D468F180024BD420CD0336854
:10031C0015F8011B9B6830469847002801DB044404
:10032C00F3E7002C08BF04462046F8BD70B505461F
:10033C000C46084649B100F021FD2B6802462146C7
:10034C002846BDE87040DB68184770BD03689B68A1
:10035C001847012A98BF0A2230B50B468BB00021F2
:10036C008DF824100DF12304B3FBF2F505FB1233C9
:10037C00DBB2092B94BF30333733DBB2214604F8A0
:10038C0001392B46002DEFD1FFF7D0FF0BB030BD5C
:10039C0000231A4619464068FFF740BF014A024B3A
:1003AC001A607047220E0A0878000020024B1A6867
:1003BC00024B1A60704700BF000000207C00002038
:1003CC0010B58368044613B10322014698472046B2
:1003DC0010BD10B50446FFF7F3FF204610BD00001A
:1003EC00034800238360034A034900F02DBB00BF80
:1003FC008000002068000020DF030A087047704767
:10040C0008B5144B33B100F067F903681B699847C2
:10041C00002816DC104B33B100F018FA03681B6986
:10042C009847002810DC0D4B0BB1AFF300800C4B40
:10043C007BB100F08DF903681B699847002806DC36
:10044C0008BDAFF30080E5E7AFF30080EBE7AFF357
:10045C00008008BD0000000000000000000000004B
:10046C000000000008B5FFF7CBFFFFF723FE014BA0
:10047C00186008BD040500200248034A0349121AFB
:10048C0000F040BC004002400440024030100A081A
:10049C0007B5002300931A466FF07701FFF794FE1F
:1004AC0003B05DF804FB000007B543880A2B08D0A5
:1004BC00502B09D1094B1B683BB103B05DF804EB21
:1004CC001847FFF7E5FF06E0002300931A466FF08C
:1004DC007701FFF779FE03B05DF804FB9000002074
:1004EC0038B5104C104D2368AB42104B0CBF012299
:1004FC0000221A7002D0FFF7BFFF2560FFF7D2FD74
:10050C00044600F013FC0A4B13B12046AFF30080F5
:10051C0000210748FFF7B2FEBDE83840002105482E
:10052C00FFF748BE004002401E1C279A9400002092
:10053C0000000000B5040A08704710B504461821E5
:10054C0000F087FA204610BDF8B50F4600F10806FA
:10055C00051D002416F8011D0A223846FFF7F9FE86
:10056C00AE42044407D0002CF4D02E213846FFF7BD
:10057C00EDFE0444EEE72046F8BD000010B504463D
:10058C00044B112240F8043B002100F0C6FB20462E
:10059C0010BD00BFC40E0A080346074A10B543F845
:1005AC00042B01F1100251F8044B914243F8044B17
:1005BC00F9D10A781A7010BDC40E0A08024A4160BB
:1005CC000260042202757047C40E0A0810B59DF82B
:1005DC00084044EA032343EA024242EA016104234D
:1005EC004160037510BD000037B5044D05609DF8E2
:1005FC0018500095FFF7EAFF03B030BDC40E0A088F
:10060C0041747047704708B50021007CFFF7AAFDC4
:10061C0030EA200028BF4FF0FF3008BD08B501219B
:10062C00007CFFF79FFD30EA200028BF4FF0FF3021
:10063C0008BD08B5007CFFF78DFD20EAE07008BD11
:10064C0008B5007CFFF77EFD20EAE07008BD007C59
:10065C00FFF798BD10B50446142100F0FAF92046B6
:10066C0010BD38B50446007C0D46FFF773FD00281D
:10067C0001DC607C28B12946207CFFF77BFD20EA59
:10068C00E07038BD10B50446002363604FF47A73F4
:10069C00A360054B08462360012321746374114643
:1006AC00FFF748FD204610BDD80E0A0810B50446C9
:1006BC001422002100F031FB054B20466360054BF2
:1006CC00E36040F2011323818123238210BD00BF1C
:1006DC001D0100209C00002030B50E4D87B001A8F4
:1006EC00FFF7E4FF296811F0010410D12846FFF749
:1006FC00D0FC60B101AA21460748FFF7C3FF28468A
:10070C00FFF7CCFC054A0649034800F09DF9024866
:10071C0007B030BD980000202002002068000020A7
:10072C0011060A0810B504461422002100F0F5FA4F
:10073C00054B20466360054BE36040F201132381B7
:10074C008123238210BD00BFD0020020380200207C
:10075C0010B50E4C86B001A8FFF7E4FF2368DB0749
:10076C0010D42046FFF795FC60B101AA012108487E
:10077C00FFF788FF2046FFF791FC064A064904481C
:10078C0000F062F9024806B010BD00BF3402002030
:10079C00BC0200206800002011060A087047417452
:1007AC00704708B5007CFFF7BDFC20EAE07008BD7F
:1007BC0008B5007CFFF796FC20EAE07008BD08B590
:1007CC00007CFFF79FFC30EA200028BF4FF0FF3081
:1007DC0008BD08B5007CFFF78DFC30EA200028BF6F
:1007EC004FF0FF3008BD007CFFF794BC10B50446F9
:1007FC00142100F02EF9204610BD70B5457C04463E
:10080C000E4625B9007CFFF78DFC002805DD31462E
:10081C00207CBDE87040FFF75DBC284670BD000031
:10082C0010B5044608461146002262604FF47A72F5
:10083C00A260054A20742260012262741A46FFF7F6
:10084C0041FC204610BD00BF080F0A0838B50C4DFE
:10085C00296811F0010411D12846FFF71AFC68B180
:10086C00084A2146084B0948FFF7DAFF2846FFF7EC
:10087C0015FC074A0749054800F0E6F8034838BD5F
:10088C006C04002070040020E8030020D403002036
:10089C0068000020A9070A08002211464068FFF7EB
:1008AC00B5BCF0B5164689B011220F46044600219E
:1008BC0003A800F032FA304600F060FA00250095EB
:1008CC0081B27B6803AA3046FFF764FC20B129464D
:1008DC002046FFF773FE03E003A92046FFF75CFEFA
:1008EC00204609B0F0BD002211464068FFF7AEBCAF
:1008FC00002211464068FFF7B9BC00224068FFF7A0
:10090C00ADBC002281F001014068FFF797BC0023C9
:10091C001A4619464068FFF789BC00221146406808
:10092C00FFF764BC002202214068FFF767BC00237C
:10093C001A464068FFF752BC024B04225A60024A26
:10094C001A607047F4040020380F0A0800231A4676
:10095C004068FFF743BC002202214068FFF74EBC01
:10096C00002211464068FFF741BC00221146406846
:10097C00FFF74CBC00231A4619464068FFF74EBCE3
:10098C0000231A4619464068FFF750BC002281F03C
:10099C0001014068FFF752BC00224068FFF75EBCC3
:1009AC00002211464068FFF761BC002211464068E6
:1009BC00FFF74CBC70B516468EB0044608A8FFF77E
:1009CC00DDFD1122002103A800F0A7F9304600F04C
:1009DC00D5F900250A4B009581B25B6803AA304615
:1009EC00FFF7D8FB20B129462046FFF7E7FD03E0CF
:1009FC0003A92046FFF7D0FD20460EB070BD00BF06
:100A0C00F4040020024B034A1A6000225A6070471B
:100A1C00FC0400206C0F0A0813B5084C00231A467E
:100A2C00194600932046FFF7DFFD2046044A05498E
:100A3C0002B0BDE8104000F007B800BF0805002068
:100A4C006800002045050A080B460146184600F0D0
:100A5C004BB9FFF71CBB0000184B1A68D1075CBFE1
:100A6C0001221A60164B1A68D2075CBF01221A6069
:100A7C00144B1A68D0075CBF01221A60124B1A681B
:100A8C00D1075CBF01221A60104B1A68D2075CBFF9
:100A9C0001221A600E4B1A68D0075CBF01221A6043
:100AAC000C4B1A68D1075CBF01221A600A4B1A68FA
:100ABC00D2075CBF01221A60704700BF3C050020C2
:100ACC003805002034050020300500202C050020BE
:100ADC00280500202405002020050020244B1A683E
:100AEC00D0075CBF01221A60224B1A68D1075CBF89
:100AFC0001221A60204B1A68D2075CBF01221A60CF
:100B0C001E4B1A68D0075CBF01221A601C4B1A6876
:100B1C00D1075CBF01221A601A4B1A68D2075CBF5E
:100B2C0001221A60184B1A68D0075CBF01221A60A8
:100B3C00164B1A68D1075CBF01221A60144B1A6855
:100B4C00D2075CBF01221A60124B1A68D0075CBF37
:100B5C0001221A60104B1A68D1075CBF01221A607F
:100B6C000E4B1A68D2075CBF01221A60704700BF97
:100B7C006C0500206805002064050020600500203D
:100B8C005C0500205805002054050020500500206D
:100B9C004C0500204805002044050020400500209D
:100BAC00244B1A68D0075CBF01221A60224B1A68CA
:100BBC00D1075CBF01221A60204B1A68D2075CBFB8
:100BCC0001221A601E4B1A68D0075CBF01221A6002
:100BDC001C4B1A68D1075CBF01221A601A4B1A68A9
:100BEC00D2075CBF01221A60184B1A68D0075CBF91
:100BFC0001221A60164B1A68D1075CBF01221A60D9
:100C0C00144B1A68D2075CBF01221A60124B1A6887
:100C1C00D0075CBF01221A60104B1A68D1075CBF69
:100C2C0001221A600E4B1A68D2075CBF01221A60AF
:100C3C00704700BF9C0500209805002094050020FB
:100C4C00900500208C0500208805002084050020DC
:100C5C00800500207C05002078050020740500200C
:100C6C0070050020184B1A68D1075CBF01221A606E
:100C7C00164B1A68D2075CBF01221A60144B1A6813
:100C8C00D0075CBF01221A60124B1A68D1075CBFF7
:100C9C0001221A60104B1A68D2075CBF01221A603D
:100CAC000E4B1A68D0075CBF01221A600C4B1A68F5
:100CBC00D1075CBF01221A600A4B1A68D2075CBFCD
:100CCC0001221A60704700BFBC050020B805002047
:100CDC00B4050020B0050020AC050020A8050020BC
:100CEC00A4050020A005002010B5054C13462CB11E
:100CFC000A4601460220AFF3008010BD204610BD0D
:100D0C000000000010B5431E0A44914204D011F8B3
:100D1C00014B03F8014FF8E710BD03460244934220
:100D2C0002D003F8011BFAE77047000038B5124BEC
:100D3C0005461C68A36BD3B91820FFF7A7FA43F23A
:100D4C000E33A06303804AF6CD33438041F2342343
:100D5C0083804EF26D63C3804DF6EC6303810523F3
:100D6C0043810B23838101220023C0E90423A36B5D
:100D7C0000221D615A6138BD64000020034613F83F
:100D8C00012B002AFBD1181A013870471D000A08E4
:100D9C005D000A0889000A088D000A08000000009E
:100DAC00626175640053657269616C0055534253FE
:100DBC00657269616C310074797065007061726183
:100DCC006D00636D6400696400686E640073747216
:100DDC006D0066696C74006C766C006164644861CB
:100DEC006E646C65720072656D6F766548616E64D9
:100DFC006C657200656E756D48616E646C657273BE
:100E0C00004A534F4E53747265616D4C6F67486165
:100E1C006E646C6572006170700025303130752025
:100E2C00005D20002564002C200028293A20002099
:100E3C005B00636F6465203D200025690064657468
:100E4C0061696C73203D20000D0A0066006C6E0019
:100E5C00666E00636F64650064657461696C006E36
:100E6C006F6E6500747261636500696E666F007702
:100E7C0061726E006572726F720070616E696300F0
:100E8C00616C6C005A00252B3033643A2530327576
:100E9C000025592D256D2D25645425483A254D3AAC
:100EAC002553257A0061736374696D650000000039
:100EBC00000000000000000055050A0845050A085E
:100ECC0047050A08000000000000000011060A088F
:100EDC0061060A086F060A080D030A084D060A087F
:100EEC0013060A0829060A085B060A083F060A08C0
:100EFC000D060A080000000000000000A9070A08FF
:100F0C00F9070A0807080A080D030A08BD070A08AA
:100F1C00DF070A08CB070A08F3070A08AB070A0819
:100F2C00AF070A0800000000000000003B090A0897
:100F3C0031090A0827090A08A5080A089D030A08A6
:100F4C001B090A080F090A0807090A08FD080A08FC
:100F5C00F3080A08AF080A080000000000000000AF
:100F6C0059090A0863090A086D090A0877090A0869
:100F7C0081090A088D090A0899090A08A5090A08AD
:100F8C00AD090A08B7090A08C1090A0800000000DF
:100F9C000000000000000000000000000000000045
:100FAC000000000000000000000000000000000035
:100FBC000000000000000000000000000000000025
:100FCC000000000000000000000000000000000015
:100FDC000000000000000000000000000000000005
:100FEC0000000000000000000000000043000000B2
:100FFC00D9020A08A9030A08B9030A08ED030A086A
:10100C0045090A08110A0A08250A0A08650A0A0885
:10101C00E90A0A08AD0B0A08710C0A080000000066
:04102C0000000000C0
:0410300000000000BC
:10103400B10E0A0800000000980F0A08B80F0A0849
:10104400D80F0A08000000000000000000000000A3
:1010540000000000F80F0A08000000000000000073
:10106400000000000000000000000000000000007C
:10107400000000000000000000000000000000006C
:10108400000000000000000000000000000000005C
:08109400000000000400002030
:10109C00FFFFFFFF00000102030405060708090A11
:1010AC000B0C0D0E0F101112131415161718191A0C
:0810BC001B1C1D1E1F20280053
:0410C4007856341214
:04000005080A001CC9
:00000001FF
