:02000004080AE8
:1000000000000A0854160A08000006000600050150
:080010000402E80500000000F5
:04001800AC120A0814
:10001C0009480A4908B5884205D0094A824202D0EB
:10002C00121A01F0DFF80748074A0021121A01F0F2
:10003C00FFF8064808BD00BF00000020C4150A08E0
:10004C006800002068000020E8010020E801002082
:10005C0070B500F069FE074B074C1E46E41AA40865
:10006C000025A54204D056F8253098470135F8E70D
:10007C0070BD00BF80150A08B4150A0800F014B84A
:10008C0008B500F039F8BDE8084000F00FBE00F0EC
:10009C0051BA00F057BA0078B0FA80F040097047B6
:1000AC00012303707047000010B500F019FD4FF4E8
:1000BC00165100F009FD4820FFF7E9FF044618B17E
:1000CC000522042100F020F8084B18201C60FFF7D3
:1000DC00DEFF40B10623436000238360C3600361ED
:1000EC004361034B0360034B186010BD6C00002090
:1000FC00D8120A0870000020014B186800F030B8C4
:10010C006C00002000F0C8B82DE9F0418846044688
:10011C001746124B002580E8080100F1280600F173
:10012C001403A26029461022C36005610575304690
:10013C0001F07EF80323E36329461FFA88F0A563D8
:10014C0026636663256484F8445000F05FFEB8B201
:10015C00294600F05BFE2046BDE8F081C8120A0873
:10016C00704770B506460C464CB1E1683046FFF757
:10017C00F8FFA5682046FFF78CFF2C46F4E770BD0E
:10018C0010B50446054B40F8243BE16AFFF7E9FF44
:10019C0004F10C0000F0C8FE204610BDC8120A087D
:1001AC0010B50446FFF7ECFF2046482100F09DFEF9
:1001BC00204610BD00F070B800238360C368036153
:1001CC007047704780686130C0B270472DE9F843C2
:1001DC000369426906469342894606D003B11970F9
:1001EC00336901333361BDE8F883C2689B1A5A1C2A
:1001FC0002D1184800F095FE002B14BF1C460124B8
:10020C001C1901D23CB101E04FF0FF342046FFF73E
:10021C003EFF074600E02746D6F80C803569C8EB50
:10022C000505EF4218BF07F8059025B12A4641464F
:10023C00384600F0E2FF01353D44B8F1000F02D022
:10024C004046FFF726FF3C44F76035617461BDE81A
:10025C00F88300BFE8120A0808B5024B1B685B6CF8
:10026C00019308BDD001060808B5024B1B689B6CB6
:10027C00019308BDD001060808B5024B1B685B68EA
:10028C00019308BD9C01060808B5024B1B685B690D
:10029C00019308BD9C01060808B5024B1B681B683E
:1002AC00019308BDB001060808B5024B1B689B689A
:1002BC00019308BDB001060808B5024B1B681B6E04
:1002CC00019308BDAC01060808B5024B1B685B6EB8
:1002DC00019308BDAC01060808B5024B1B689B6E68
:1002EC00019308BDAC01060808B5024B1B68DB6E18
:1002FC00019308BDAC01060808B5024B1B681B6FC7
:10030C00019308BDAC01060808B5024B1B685B6F76
:10031C00019308BDAC01060808B5034B1B68D3F864
:10032C008030019308BD0000AC01060808B5024BF3
:10033C001B68DB69019308BDB401060808B5024BC4
:10034C001B681B6A019308BDB401060808B5024B73
:10035C001B689B69019308BDC401060808B5024BD4
:10036C001B685B6A019308BDC401060808B5024B03
:10037C001B689B6A019308BDC401060808B5024BB3
:10038C001B68DB6A019308BDC401060808B5024B63
:10039C001B681B6B019308BDC401060808B5024B12
:1003AC001B685B6B019308BDC401060808B5024BC2
:1003BC001B689B6B019308BDC401060808B5024B72
:1003CC001B681B6C019308BDC401060808B5024BE1
:1003DC001B681B68019308BDD801060808B5024BC1
:1003EC001B685B68019308BDD801060808B5024B71
:1003FC001B681B69019308BDD801060808B5024BA0
:10040C001B685B69019308BDD801060808B5024B4F
:10041C001B689B69019308BDD801060808B5024BFF
:10042C001B68DB69019308BDD801060808B5024BAF
:10043C001B681B6A019308BDD801060808B5024B5E
:10044C001B689B6C019308BDC001060808B5024BE4
:10045C001B685B68019308BDA401060808B5034B33
:10046C001B68D3F89030019308BD0000A401060866
:10047C0008B5034B1B68D3F89C30019308BD0000F2
:10048C00A401060808B5024B1B68DB6B019308BD81
:10049C00CC01060808B5024B1B685B68019308BDCC
:1004AC00C801060808B5024B1B689B68019308BD80
:1004BC00C801060808B5024B1B68DB68019308BD30
:1004CC00C801060808B5024B1B681B69019308BDDF
:1004DC00C801060808B5024B1B685B69019308BD8F
:1004EC00C801060808B5024B1B689B69019308BD3F
:1004FC00C801060808B5024B1B68DB69019308BDEF
:10050C00C801060808B5024B1B681B6A019308BD9D
:10051C00C801060808B5024B1B681B6B019308BD8C
:10052C00C801060808B5024B1B685B6B019308BD3C
:10053C00C801060808B5024B1B681B68019308BD6F
:10054C00A001060808B5024B1B685B68019308BD47
:10055C00A001060808B5024B1B68DB6A019308BDB5
:10056C00A001060810B58368044613B103220146A6
:10057C009847204610BD7047F8B5064615460C4600
:10058C008F18BC4206D0336814F8011B9B683046A8
:10059C009847F6E72846F8BD0022007CFFF78CBE92
:1005AC000021007CFFF790BE0021007CFFF794BE79
:1005BC000021007CFFF798BE0021007CFFF79CBE59
:1005CC0010B50446142100F090FC204610BD00002C
:1005DC0010B50446002363604FF47A73A360044B98
:1005EC002174084623601146FFF796FE204610BD85
:1005FC000C130A080021007CFFF786BE704710B56B
:10060C000446182100F071FC204610BDF8B50F46C9
:10061C0000F10806051D002416F8011D0A223846B3
:10062C0000F0E7F8AE42044407D0002CF4D02E21A1
:10063C00384600F0DBF80444EEE72046F8BD000035
:10064C0010B50446044B112240F8043B002100F085
:10065C00EFFD204610BD00BF34130A080346074ABD
:10066C0010B543F8042B01F1100251F8044B9142E0
:10067C0043F8044BF9D10A781A7010BD34130A08E8
:10068C00024A4160026004220275704734130A0862
:10069C0010B59DF8084044EA032343EA024242EABB
:1006AC00016104234160037510BD000037B5044D92
:1006BC0005609DF818500095FFF7EAFF03B030BDB8
:1006CC0034130A08014A024B1A607047B6130A0821
:1006DC007400002000231A464068FFF7DBBE00229E
:1006EC0002214068FFF7E6BE002211464068FFF782
:1006FC00D9BE002211464068FFF7E4BE00231A461B
:10070C0019464068FFF7E6BE00231A4619464068B2
:10071C00FFF7E8BE002281F001014068FFF7EABE56
:10072C0000224068FFF7F6BE002211464068FFF732
:10073C00F9BE002211464068FFF7E4BE70B51646BC
:10074C008EB0044608A8FFF77BFF1122002103A8F6
:10075C0000F06EFD304600F09BFD00250A4B009525
:10076C0081B25B6803AA3046FFF768FE20B12946C8
:10077C002046FFF785FF03E003A92046FFF76EFF35
:10078C0020460EB070BD00BFF0000020024B034AA3
:10079C001A6000225A607047780000202C140A0856
:1007AC00F8B506460D468F180024BD420CD03368B0
:1007BC0015F8011B9B6830469847002801DB044460
:1007CC00F3E7002C08BF04462046F8BD70B505467B
:1007DC000C46084649B100F05BFD2B6802462146E9
:1007EC002846BDE87040DB68184770BD03689B68FD
:1007FC001847012A98BF0A2230B50B468BB000214E
:10080C008DF824100DF12304B3FBF2F505FB123324
:10081C00DBB2092B94BF30333733DBB2214604F8FB
:10082C0001392B46002DEFD1FFF7D0FF0BB030BDB7
:10083C0010B50446FFF796FE204610BD0348002372
:10084C008360034A034900F04BBB00BF80000020CB
:10085C00680000203D080A0870B504460E460025C5
:10086C0040F8085FFFF7F8FC30462670FFF75EFD96
:10087C006560204670BD0078FFF760BD10B504467A
:10088C00006818B1FFF75EFE0023236010BD10B5A1
:10089C000446FFF7F3FF204610BD00004FF6FF7330
:1008AC0010B5084C00202060A080A07120816381CD
:1008BC00FFF7CCFD2046BDE81040034A034900F089
:1008CC000FBB00BF90000020680000209B080A08A6
:1008DC00024B1A68024B1A60704700BF00000020E0
:1008EC009C00002070474174704708B5007CFFF7EE
:1008FC0065FD20EAE07008BD08B5007CFFF736FD09
:10090C0020EAE07008BD08B5007CFFF73FFD30EA37
:10091C00200028BF4FF0FF3008BD08B5007CFFF762
:10092C002DFD30EA200028BF4FF0FF3008BD007CC1
:10093C00FFF734BD10B50446142100F0D6FA20465A
:10094C0010BD70B5457C04460E4625B9007CFFF7FA
:10095C0035FD002805DD3146207CBDE87040FFF7F1
:10096C00FDBC284670BD000010B504460846114673
:10097C00002262604FF47A72A260054A20742260F1
:10098C00012262741A46FFF7E1FC204610BD00BF3D
:10099C008C140A08007CFFF709BD0000F8B5194C4F
:1009AC0025684DB98420FFF772FB064618B18422E6
:1009BC00294600F03DFC2660134D2E684EB984206C
:1009CC00FFF765FB074618B18422314600F030FC76
:1009DC002F600E4F396811F0010611D13846FFF720
:1009EC005AFB68B1226831462B680948FFF7BCFFF7
:1009FC003846FFF755FB074A0749054800F070FADF
:100A0C000348F8BDBC000020B4000020B800002052
:100A1C00A000002068000020F1080A08417470470B
:100A2C00704708B50021007CFFF7F0FC30EA20008D
:100A3C0028BF4FF0FF3008BD08B50121007CFFF73F
:100A4C00E5FC30EA200028BF4FF0FF3008BD08B5A8
:100A5C00007CFFF7D3FC20EAE07008BD08B5007CF1
:100A6C00FFF7C4FC20EAE07008BD007CFFF7DEBC99
:100A7C0010B50446142100F038FA204610BD38B5E4
:100A8C000446007C0D46FFF7B9FC002801DC607CB5
:100A9C0028B12946207CFFF7C1FC20EAE07038BD64
:100AAC0010B50446002363604FF47A73A360054BC2
:100ABC00084623600123217463741146FFF786FCFA
:100ACC00204610BDBC140A080022007CFFF786BC2F
:100ADC0010B504461422002100F0AAFB204610BDDC
:100AEC0030B50E4D87B001A8FFF7F2FF296811F061
:100AFC00010410D12846FFF7CEFA60B101AA2146B5
:100B0C000748FFF7CDFF2846FFF7CAFA054A064902
:100B1C00034800F0E5F9024807B030BDC0000020E2
:100B2C00C8000020680000202D0A0A0810B50446F1
:100B3C001422002100F07CFB204610BD10B50E4C99
:100B4C0086B001A8FFF7F2FF2368DB0710D420461C
:100B5C00FFF7A1FA60B101AA01210848FFF7A0FF35
:100B6C002046FFF79DFA064A0649044800F0B8F9FA
:100B7C00024806B010BD00BFC4000020DC000020FD
:100B8C00680000202D0A0A08002211464068FFF771
:100B9C0099BCF0B5164689B011220F4604460021C7
:100BAC0003A800F045FB304600F072FB00250095D1
:100BBC0081B27B6803AA3046FFF740FC20B129467E
:100BCC002046FFF75DFD03E003A92046FFF746FD35
:100BDC00204609B0F0BD002211464068FFF792BCD8
:100BEC00002211464068FFF79DBC00224068FFF7C9
:100BFC0091BC002281F001014068FFF77BBC00230F
:100C0C001A4619464068FFF76DBC00231A46194670
:100C1C004068FFF75FBC002211464068FFF742BCFA
:100C2C00002202214068FFF745BC00231A464068A9
:100C3C00FFF730BC024B04225A60024A1A6070471C
:100C4C00F0000020EC140A0808B5144B33B1FFF780
:100C5C0047FF03681B699847002816DC104B33B11B
:100C6C00FFF79CFE03681B699847002810DC0D4BAE
:100C7C000BB1AFF300800C4B7BB1FFF75FFF036848
:100C8C001B699847002806DC08BDAFF30080E5E738
:100C9C00AFF30080EBE7AFF3008008BD000000006D
:100CAC0000000000000000000000000008B5FFF785
:100CBC00CBFFFFF7E9FA014B186008BD10010020CB
:100CCC000248034A0349121A00F08CBA0040024051
:100CDC0004400240C0150A0807B5002300931A46C9
:100CEC006FF07701FFF7C4FB03B05DF804FB000065
:100CFC0007B543880A2B08D0502B09D1094B1B6828
:100D0C003BB103B05DF804EB1847FFF7E5FF06E0D5
:100D1C00002300931A466FF07701FFF7A9FB03B08D
:100D2C005DF804FBF800002038B5104C104D23681A
:100D3C00AB42104B0CBF012200221A7002D0FFF7FD
:100D4C00BFFF2560FFF798FA044600F079FA0A4BCA
:100D5C0013B12046AFF3008000210748FFF792FB48
:100D6C00BDE8384000210548FFF778BB0040024041
:100D7C001E1C279AFC00002000000000FD0C0A0835
:100D8C0010B50446806808B1FFF76EFA204610BD16
:100D9C0070B51A4E0446316811F001050FD130467A
:100DAC00FFF779F958B129461548FFF755FD30463C
:100DBC00FFF776F9134A1449114800F091F81048DE
:100DCC00FFF759FD28B1A4F10D03022B01D8002027
:100DDC0070BD00F047F8FFF70DFC08B1012CF6D9F7
:100DEC00FFF7DCFDFFF7D6FD18B1A4F11203012BC0
:100DFC00EDD9172C8CBF0020012070BD0001002004
:100E0C0004010020680000208D0D0A08172838B551
:100E1C0004460D460AD8FF2908D0FFF7B9FF28B1C0
:100E2C0029462046BDE83840FFF73EBA38BD0000E1
:100E3C0070B5044614252A46094E002100F0F8F935
:100E4C00258020253146A5602561284600F067F8ED
:100E5C0031466060284600F062F8E060204670BDC4
:100E6C0018150A0830B50E4D87B0296811F0010429
:100E7C0013D12846FFF70FF978B101A8FFF7D8FF77
:100E8C0001AA21460748FFF7A3FB2846FFF708F9FC
:100E9C00054A0649034800F023F8024807B030BD64
:100EAC0014010020180100206800002083050A08A6
:100EBC0013B5084C00231A46194600932046FFF739
:100ECC00F5FB2046044A054902B0BDE8104000F08D
:100EDC0007B800BF2C0100206800002009060A0892
:100EEC000B460146184600F06FB9FFF7D2B8000068
:100EFC00024B1868BFF35F8F704700BF440100209E
:100F0C0010B5002814BF044601242046FFF712FB3D
:100F1C0020B9FFF7EDFF08B18047F6E710BDFFF7EA
:100F2C00EFBF08B5FFF716FB034653F8080B9842C2
:100F3C0001D0FFF7AEB87047244B1A68D0075CBFDE
:100F4C0001221A60224B1A68D1075CBF01221A6079
:100F5C00204B1A68D2075CBF01221A601E4B1A681C
:100F6C00D0075CBF01221A601C4B1A68D1075CBF0A
:100F7C0001221A601A4B1A68D2075CBF01221A6050
:100F8C00184B1A68D0075CBF01221A60164B1A68FE
:100F9C00D1075CBF01221A60144B1A68D2075CBFE0
:100FAC0001221A60124B1A68D0075CBF01221A602A
:100FBC00104B1A68D1075CBF01221A600E4B1A68DD
:100FCC00D2075CBF01221A60704700BF7401002079
:100FDC00700100206C0100206801002064010020D9
:100FEC00600100205C010020580100205401002009
:100FFC00500100204C01002048010020184B1A68B9
:10100C00D1075CBF01221A60164B1A68D2075CBF6D
:10101C0001221A60144B1A68D0075CBF01221A60B7
:10102C00124B1A68D1075CBF01221A60104B1A6868
:10103C00D2075CBF01221A600E4B1A68D0075CBF46
:10104C0001221A600C4B1A68D1075CBF01221A608E
:10105C000A4B1A68D2075CBF01221A60704700BFA6
:10106C0094010020900100208C01002088010020B8
:10107C0084010020800100207C01002078010020E8
:10108C00184B1A68D1075CBF01221A60164B1A68FC
:10109C00D2075CBF01221A60144B1A68D0075CBFE0
:1010AC0001221A60124B1A68D1075CBF01221A6028
:1010BC00104B1A68D2075CBF01221A600E4B1A68DB
:1010CC00D0075CBF01221A600C4B1A68D1075CBFB9
:1010DC0001221A600A4B1A68D2075CBF01221A60FF
:1010EC00704700BFB4010020B0010020AC0100200B
:1010FC00A8010020A4010020A00100209C010020D8
:10110C0098010020244B1A68D0075CBF01221A609A
:10111C00224B1A68D1075CBF01221A60204B1A6857
:10112C00D2075CBF01221A601E4B1A68D0075CBF45
:10113C0001221A601C4B1A68D1075CBF01221A608D
:10114C001A4B1A68D2075CBF01221A60184B1A6836
:10115C00D0075CBF01221A60164B1A68D1075CBF1E
:10116C0001221A60144B1A68D2075CBF01221A6064
:10117C00124B1A68D0075CBF01221A60104B1A6818
:10118C00D1075CBF01221A600E4B1A68D2075CBFF4
:10119C0001221A60704700BFE4010020E00100202A
:1011AC00DC010020D8010020D4010020D001002057
:1011BC00CC010020C8010020C4010020C001002087
:1011CC00BC010020B801002010B5054C13462CB111
:1011DC000A4601460220AFF3008010BD204610BD28
:1011EC000000000010B5431E0A44914204D011F8CF
:1011FC00014B03F8014FF8E710BD884210B501EB25
:10120C00020301D8421E0BE09842FBD28118D21A7D
:10121C00D34204D013F8014D01F8014DF8E710BD8D
:10122C00994204D011F8014B02F8014FF8E710BDB8
:10123C0003460244934202D003F8011BFAE77047BD
:10124C0038B5124B05461C68A36BD3B91820FFF7B1
:10125C0071F943F20E33A06303804AF6CD33438019
:10126C0041F2342383804EF26D63C3804DF6EC6300
:10127C000381052343810B23838101220023C0E9D1
:10128C000423A36B00221D615A6138BD6400002049
:10129C00034613F8012B002AFBD1181A01387047AA
:1012AC001D000A085D000A0889000A088D000A085A
:1012BC000000000000000000000000008D010A0882
:1012CC00AD010A080000000000000000C5010A087A
:1012DC00CF010A08D1010A08D9010A08766563749E
:1012EC006F723A3A5F4D5F656D706C6163655F62FA
:1012FC0061636B5F61757800000000000000000006
:10130C0083050A08CD050A08A5050A0885050A08FB
:10131C00AD050A08B5050A08BD050A08C5050A0881
:10132C00000000000000000019060A0809060A085F
:10133C000B060A08626175640053657269616C0082
:10134C0055534253657269616C3100747970650054
:10135C00706172616D00636D6400696400686E6435
:10136C00007374726D0066696C74006C766C00614D
:10137C00646448616E646C65720072656D6F76654D
:10138C0048616E646C657200656E756D48616E6463
:10139C006C657273004A534F4E53747265616D4C99
:1013AC006F6748616E646C65720061707000253007
:1013BC0031307520005D20002564002C2000282988
:1013CC003A2000205B00636F6465203D2000256996
:1013DC000064657461696C73203D20000D0A006621
:1013EC00006C6E00666E00636F646500646574610A
:1013FC00696C006E6F6E6500747261636500696E76
:10140C00666F007761726E006572726F7200706148
:10141C006E696300616C6C0000000000000000004D
:10142C00E1060A08EB060A08F5060A08FF060A0890
:10143C0009070A0815070A0821070A082D070A08D0
:10144C0035070A083F070A0849070A085A00252BDE
:10145C003033643A253032750025592D256D2D25F4
:10146C00645425483A254D3A2553257A0061736317
:10147C0074696D65000000000000000000000000B1
:10148C00F1080A0841090A084F090A08AD070A08B9
:10149C0005090A0827090A0813090A083B090A085A
:1014AC00F3080A08F7080A08000000000000000012
:1014BC002D0A0A087D0A0A088B0A0A08AD070A08D1
:1014CC00690A0A082F0A0A08450A0A08770A0A084C
:1014DC005B0A0A08290A0A08000000000000000044
:1014EC00370C0A082D0C0A08230C0A08950B0A085D
:1014FC00170C0A080B0C0A08FF0B0A08F70B0A0852
:10150C00ED0B0A08E30B0A089F0B0A080000000009
:10151C0000000000000000000000000000000000BF
:10152C0000000000000000000000000000000000AF
:10153C00000000000000000000000000000000009F
:10154C00000000000000000000000000000000008F
:10155C00000000000000000000000000000000007F
:10156C00000000000000000000000000000000006F
:10157C004300000011010A08C1010A08D1060A083B
:10158C0099070A0849080A08A9080A08DD080A0880
:10159C00410C0A08BD0E0A08450F0A0809100A0872
:1015AC008D100A0811110A0800000000000000004C
:0415BC00000000002B
:0415C0000000000027
:1015C40079140A08000000001C150A083C150A08D2
:1015D4005C150A0800000000000000000000000084
:1015E400000000007C150A08000000000000000054
:1015F40000000000000000000000000000000000E7
:1016040000000000000000000000000000000000D6
:1016140000000000000000000000000000000000C6
:0816240000000000040000209A
:10162C00FFFFFFFF00000102030405060708090A7B
:10163C000B0C0D0E0F101112131415161718191A76
:08164C001B1C1D1E1F202800BD
:04165400785634127E
:04000005080A001CC9
:00000001FF
